:10094600656D7074790071756172746572006861A5
:100956006C660074687265652D666F7572746800E2
:0509660066756C6C00D9
:09091E007E001209917F017E00A8
:10092700D3EF9400EE94004015E4FDFC0DBD0001EB
:0E0937000CBC03F8BDE8F5EF1F70E51E80E272
:01094500228F
:0E098300D290C2918FA0D292120923C292226A
:0E0991008FA0C290C291D292120923C292226C
:0608C2008B088A09890A77
:1008C800E4F50BF50CAB08AA09A90A850C82850B7F
:1008D800831208F1FF60113395E0FE120983050CBD
:0808E800E50C70E1050B80DD59
:0108F00022E5
:10096B007F3812091E7F0E12091E7F017E001209AD
:08097B00917F807E00020991CA
:10080000D2B3D2B2D2B1D2B0C2B3C2B2C2B1C2B00C
:1008100020B01C20B11920B21620B31312096B7B33
:10082000FF7A0979461208C27FF47E01120927D2A5
:10083000B030B01C20B11920B21620B31312096BCE
:100840007BFF7A09794C1208C27FF47E01120927D6
:10085000D2B130B01C30B11920B21620B313120936
:100860006B7BFF7A0979541208C27FF47E0112096A
:1008700027D2B230B01C30B11930B21620B31312E7
:10088000096B7BFF7A0979591208C27FF47E011245
:100890000927D2B320B00302080820B103020808D8
:1008A00020B20302080820B30302080812096B7B78
:1008B000FF7A0979661208C27FF47E0112092702C5
:0208C000080826
:0300000002099F53
:0C099F00787FE4F6D8FD75810C0208009A
:1008F100BB010CE58229F582E5833AF583E02250BC
:1009010006E92582F8E622BBFE06E92582F8E22205
:0D091100E58229F582E5833AF583E493221F
:00000001FF
